:03000000021AA140
:0C1AA100787FE4F6D8FD758121021AE878
:101D3600B3CCD0F2B3F6B4ED002D2D2D2D00B4F2B8
:101D4600C7F2C4A3CABD00BDF8C7F2A3BA00256492
:101D56002E303000BCF1C7F2C4A3CABD00C5C4A36F
:101D6600A1A3BA0025642E3000B6C1BFA8C4A3CA79
:101D7600BD00B6C1BFA8A3BA2D2D2D2D00BFAABF89
:101D8600A8C4A3CABD00BFAABFA8A3BA2D2D2D2DD6
:101D960000B5E7C4D4BFD8D6C6002D2D00D7A2B251
:0C1DA600E1B3C9B9A60020121001000032
:101701004600A4FFFFFFFFFFFF5000940000000010
:101711000000000000000000000000005000AE00CA
:101721000000000000FF0780690000000000004188
:10173100009201410093024100BF014200C000003C
:0E1741004100BE014200AA00024200AC000AB4
:10226100C297D2B47FD07E07122110C2B4D2972276
:1020BF00D297E4900000F0C297D2B47FC87E00128E
:1020CF002110C2B4D2977FC87E0012211090000059
:0920DF00E004F0E0C3940340DECC
:0120E80022D5
:0B1F4D0090002AEBF0A3EAF0A3E9F0FB
:101F5800782D7C007D017BFF7A1D79AC7E007F06A1
:101F68001200F690002AE0FBA3E0FAA3E0F8AC0226
:0F1F7800AD037B017A00792D7E007F060200F613
:081CBA00E0FBA3E0FAA3E0F94E
:101CC200900001120135FF12011C2F2402900031F5
:101CD200F090002EEBF0A3EAF0A3E9F07FFC1222D1
:101CE2009D90003274FCF0E4A3F0900031E0FF908C
:101CF2000033E0C39F503590002EE0FBA3E0FAA32F
:101D0200E0F912011CFF12229D900032E0FF9000C8
:101D12002EE0FBA3E475F0011201ACA9F0FA120166
:101D22001C6F900032F0A3E004F080BE900032E01D
:041D3200FF02229DED
:0E228100E490005CF090005EF090005DF022B2
:0B22C40090000574AA1201747F012233
:1017A900900003EBF0A3EAF0A3E9F07B017A00795A
:1017B900947F26121B2DEF60207B017A0079947F9C
:1017C90026121B2DEF6012900003E0FBA3E0FAA3A1
:1017D900E0F99000047409801C7B017A0079961263
:1017E90014E5EF9000036030E0FBA3E0FAA3E0F911
:1017F900900004740A120174900001120135FF7EF1
:10180900007D00E92405F9E43AFA1203629000C068
:10181900E4F0A304F07F0022E0FBA3E0FAA3E024B4
:1018290005F9E43AA801FCAD037B017A0079967EBB
:0E183900007F041200F69000BF7401F0FF2241
:0B0E1D00900003EBF0A3EAF0A3E9F063
:100E280090000174071201749000051201359000BA
:100E38000CF0540364036013900003E0FBA3E0FA92
:100E4800A3E0F9900004740C020F4E7B017A00793C
:100E5800947F26121B2DEF60217B017A0079947F05
:100E680026121B2DEF6013900003E0FBA3E0FAA30A
:100E7800E0F99000047409020F4E7B017A0079961C
:100E88001214E5EF6013900003E0FBA3E0FAA3E07F
:100E9800F9900004740A020F4E7B017A00799612C9
:100EA80015A2EF6013900003E0FBA3E0FAA3E0F9BA
:100EB800900004740B020F4E900003E0FBA3E0FACD
:100EC800A3E02406F9E43AFA78067C007D017E0066
:100ED8007F061200F690000CE0FD90002F7401F0E0
:100EE800A37400F0A37496F07B017A0079067F6002
:100EF800121DB2EF6012900003E0FBA3E0FAA3E03A
:100F0800F99000047404803E900003E0FBA3E0FA2B
:100F1800A3E0240CF9E43AFA78AE7C007D017E0067
:100F28007F061200F690000CE0FF7B017A0079AE94
:100F380012197AEF602E900003E0FBA3E0FAA3E019
:100F4800F990000474061201747E007F067D00E9A2
:100F58002406F9E43AFA1203629000C0E4F0A3040C
:100F6800F07F00227E007F067D00900003E0FBA357
:100F7800E0FAA3E02406F9E43AFA1203629000BF0B
:040F88007401F0FF01
:010F8C002242
:0B0F8D00900003EBF0A3EAF0A3E9F0F2
:100F9800900001741112017490000512013590003F
:100FA8001CF0540364037013900003E0FBA3E0FA01
:100FB800A3E0F9900004740C0210BE7B017A00795A
:100FC800947F26121B2DEF60217B017A0079947F94
:100FD80026121B2DEF6013900003E0FBA3E0FAA399
:100FE800E0F990000474090210BE7B017A0079963A
:100FF8001214E5EF6013900003E0FBA3E0FAA3E00E
:10100800F9900004740A0210BE7B017A00799612E6
:1010180015A2EF6013900003E0FBA3E0FAA3E0F948
:10102800900004740B0210BE900003E0FBA3E0FAEA
:10103800A3E02406F9E43AFA78167C007D017E00E4
:101048007F061200F690001CE0FD90002F7401F05E
:10105800A37400F0A37496F07B017A0079167F6080
:10106800121DB2EF6012900003E0FBA3E0FAA3E0C8
:10107800F99000047404803E900003E0FBA3E0FABA
:10108800A3E0240CF9E43AFA78067C007D017E009E
:101098007F101200F690001CE0FF7B017A007906B1
:1010A80012197AEF602E900003E0FBA3E0FAA3E0A8
:1010B800F990000474061201747E007F107D00E927
:1010C8002406F9E43AFA1203629000C0E4F0A3049B
:0B10D800F07F00229000BF7401F0FFC9
:0110E30022EA
:0B10E400900003EBF0A3EAF0A3E9F09A
:1010EF0090000174111201749000051201359000E7
:1010FF001CF0540364037013900003E0FBA3E0FAA9
:10110F00A3E0F9900004740C0211F77B017A0079C7
:10111F00947F26121B2DEF60217B017A0079947F3B
:10112F0026121B2DEF6013900003E0FBA3E0FAA340
:10113F00E0F990000474090211F77B017A007996A7
:10114F001214E5EF6013900003E0FBA3E0FAA3E0B5
:10115F00F9900004740A0211F77B017A0079961254
:10116F0015A2EF6012900003E0FBA3E0FAA3E0F9F1
:10117F00900004740B8071900003E0FBA3E0FAA3CE
:10118F00E02406F9E43AFA78167C007D017E007FB0
:10119F00061200F690001CE0FD90002F7401F0A3E2
:1011AF007400F0A37496F07B017A0079167F6012B9
:1011BF001DB2EF6012900003E0FBA3E0FAA3E0F989
:1011CF009000047404802190001CE0FF7B017A00E2
:1011DF007906121A10EF900003602BE0FBA3E0FAE0
:1011EF00A3E0F990000474051201747E007F107D56
:1011FF0000E92406F9E43AFA1203629000C0E4F021
:10120F00A304F07F0022E0FBA3E0FAA3E02406F999
:10121F00E43AA801FCAD037B017A0079067E007FDA
:0B122F00101200F69000BF7401F0FFE9
:01123A002291
:102157007BFF7A1D79369000437403F07D01121FCF
:10216700127BFF7A1D793F9000437403F07D0402D0
:022177001F1235
:10123B007E007F0A7D007B017A00792A120362907F
:10124B000093E0700302130D14604124FE7003023F
:10125B0012ED04600302132E7BFF7A1D794490007C
:10126B00437403F07D01121F127BFF7A1D794DE44D
:10127B00900043F07D03121F1290003774FFF0A310
:10128B00741DF0A37454F09000AA80327BFF7A1D7A
:10129B00795A9000437403F07D01121F127BFF7A81
:1012AB001D7963E4900043F07D03121F1290003709
:1012BB0074FFF0A3741DF0A3746AF09000ACE0FF10
:1012CB00A3E090003ACFF0A3EFF07B017A00792AEC
:1012DB001204397B017A00792A9000437403F0FDE4
:1012EB00803E7BFF7A1D796F9000437403F07D0184
:1012FB00121F127BFF7A1D7978E4900043F07D0377
:10130B00801E7BFF7A1D79839000437403F07D016F
:10131B00121F127BFF7A1D798CE4900043F07D0342
:03132B00121F127C
:01132E00229C
:0E0C8100900026E0FCA3E0FDA3E0FEA3E0FF50
:060C8F0090002A1202F899
:100C95009000387401F0A37400F0A3742EF0E47F83
:100CA5000F7E27FDFC90002AE0F8A3E0F9A3E0FA07
:100CB500A3E0FBD31202E7400A90002A12030400C6
:100CC50000270F90002AE0FCA3E0FDA3E0FEA3E0CF
:100CD500FF90003B1202F8E47BE87A03F9F89000F4
:100CE5003BE0FCA3E0FDA3E0FEA3E0FF120255EF0D
:100CF5002430FF900038E0FBA3E475F0011201AC4D
:100D0500A9F0FAEF12016290003BE0FCA3E0FDA31D
:100D1500E0FEA3E0FFE47BE87A03F9F8120255ACA4
:100D250000AD01AE02AF0390003B1202F8E47B6414
:100D3500FAF9F890003BE0FCA3E0FDA3E0FEA3E098
:100D4500FF120255EF2430FF900038E0FBA3E47555
:100D5500F0011201ACA9F0FAEF12016290003BE03C
:100D6500FCA3E0FDA3E0FEA3E0FFE47B64FAF9F851
:100D7500120255AC00AD01AE02AF0390003B12026A
:100D8500F8E47B0AFAF9F890003BE0FCA3E0FDA348
:100D9500E0FEA3E0FF120255EF2430FF900038E09B
:100DA500FBA3E475F0011201ACA9F0FAEF120162A0
:100DB50090003BE0FCA3E0FDA3E0FEA3E0FFE47BA5
:100DC5000AFAF9F8120255AC00AD01AE02AF039074
:100DD500003B1202F890003BA3A3A3E02430FF9050
:100DE5000038E0FBA3E475F0011201ACA9F0FAEFBD
:100DF500120162900038E0FBA3E475F0011201AC2A
:100E0500A9F0FAE41201627B017A00792E90004381
:080E15007403F07D04021F12BA
:0B141F0090002AEBF0A3EAF0A3E9F034
:10142A009000377401F0A37400F0A3742DF0E4FF68
:10143A0090002AE0FBA3E0FAA3E0F912011CC454CD
:10144A000FFEC39400400BEED394095005EE2430EE
:10145A008003EE2437FD900037E0FBA3E475F0012A
:10146A001201ACA9F0FAED12016290002AE0FBA386
:10147A00E0FAA3E0F912011C540FFEC39400400BDA
:10148A00EED394095005EE24308003EE2437FE9003
:10149A000037E0FBA3E475F0011201ACA9F0FAEE03
:1014AA0012016290002BE475F0011201960FEF64AD
:1014BA0004600302143A900037E0FBA3E475F001DC
:1014CA001201ACA9F0FAE41201627B017A00792DCB
:0B14DA009000437403F07D02021F121B
:101F8700E4900092F07BFF7A1D79979000437403E9
:101F9700F07D01121F127BFF7A1D79A09000437418
:101FA70003F07D04121F127BFF7A1D79A090004376
:0A1FB7007403F0FD121F127F0122D7
:0C22B8009000927401F012123B7F012292
:10132F007FFE90005DE06401600302141E900000D8
:10133F007401F0A37400F0A3745FF0900000E0FB61
:10134F00A3E0FAA3E0F9900001120135FE12011C8F
:10135F002E2403FEE4FDEE14FCEDC39C5010745FCD
:10136F002DF582E43400F583E06FFF0D80E89000E7
:10137F0000E0FBA3E0FAA3E0F99000021201C21211
:10138F00033513AD000213B2000313C2011013D2C1
:10139F00012013E2013013F2014000001402122267
:1013AF00C48063900000E0FBA3E0FAA3E0F91217FA
:1013BF00A98053900000E0FBA3E0FAA3E0F9120E1E
:1013CF001D8043900000E0FBA3E0FAA3E0F91210A8
:1013DF00E48033900000E0FBA3E0FAA3E0F9120FE2
:1013EF008D8023900000E0FBA3E0FAA3E0F9122226
:1013FF00B88013900000E0FBA3E0FAA3E0F990009F
:0F140F00047402120174900000121CBA122281A0
:01141E0022AB
:101847007FFEE490002DF090005DE06401600302EC
:1018570018DD90002A7401F0A37400F0A3745FF000
:1018670090002AE0FBA3E0FAA3E0F990000112013F
:1018770035FE12011C2E2403FEE4FDEE14FCEDC31D
:101887009C5010745F2DF582E43400F583E06FFF00
:101897000D80E890002AE0FBA3E0FAA3E0F99000AE
:1018A700021201C212033518B60141000018C11215
:1018B7001F8790002D7401F0801390002AE0FBA38E
:1018C700E0FAA3E0F9900004740212017490002A70
:0B18D700121CBA12228190002DE0FFCD
:0118E20022E3
:10073900121847EF64017003020A6F121EC5EF24F5
:10074900FE601C14602C14603A2403704C900093D2
:100759007402F07BFF7A1D79449000430480349041
:1007690000937401F07BFF7A1D795A90004374035A
:1007790080219000937403F07BFF7A1D796F9000BC
:10078900438010E4900093F07BFF7A1D79839000F9
:10079900437403F07D01121F127B017A0079947F63
:1007A90026121B2DEF60107B017A0079947F2612A7
:1007B9001B2DEF6002801A7B017A0079961214E5ED
:1007C900EF6002800C7B017A0079961215A2EF6026
:1007D9000302123B7B017A00799612141F7B017A7E
:1007E900007920121F4D900093E0147003020898BD
:1007F900147003020944147003020A1F24036003DE
:10080900020A6C90002F7401F0A37400F0A374968F
:10081900F07B017A0079A47D047F60121DB2EF603C
:1008290003020A4D7E007F107D007B017A0079105A
:100839001203627B017A0079107F0412197AEF6042
:1008490003020A4D78107C007D017B017A0079AEA4
:100859007E007F101200F678107C007D017B017A02
:100869000079207E007F061200F67B017A0079105C
:100879007F0712197AEF6003020A4D7BFF7A1D790F
:10088900A39000437403F07D01121F12020A6690BF
:10089900002F7401F0A37400F0A37496F07B017A21
:1008A9000079207D047F60121DB2EF6003020A4DBA
:1008B9007B017A0079007F04121A10EF6003020AA3
:1008C9004D78267C007D017B017A0079007E007FCE
:1008D900041200F6900026E0F8A3E0F9A3E0FAA3D9
:1008E900E0FB9000ACE0FEA3E0FFEE3395E0FDFCF9
:1008F900EB2FFFEA3EFEE93DFDE83CFC90002612A5
:1009090002F87E007F107D007B017A0079101203C6
:100919006278107C007D017B017A0079267E007F58
:10092900041200F67B017A0079107F0412197AEF1C
:100939006003020A4D120C81020A6690002F7401AD
:10094900F0A37400F0A37496F07B017A0079207DFE
:10095900047F60121DB2EF6003020A4D7B017A0029
:1009690079007F04121A10EF6003020A4D78267C81
:10097900007D017B017A0079007E007F041200F678
:10098900E47F08FEFDFC900026E0F8A3E0F9A3E06F
:10099900FAA3E0FBC31202E7500C1221579000C0E2
:1009A900E4F0A304F022900026E0FCA3E0FDA3E01C
:1009B900FEA3E0FFC006C0079000AAE0FEA3E0FB8B
:1009C900AA06EA3395E0F9F8D007D006C3EF9BFFF2
:1009D900EE9AFEED99FDEC98FC9000261202F87E45
:1009E900007F107D007B017A007910120362781074
:1009F9007C007D017B017A0079267E007F0412004C
:100A0900F67B017A0079107F0412197AEF6002806F
:100A190033120C81804790002F7401F0A37400F009
:100A2900A37496F07B017A0079207D047F60121D02
:100A3900B2EF6002800E7B017A0079007F04121AFE
:100A490010EF600302215778267C007D017B017A33
:100A59000079007E007F041200F6120C819000BF1D
:060A69007401F0121E737F
:010A6F002264
:101FFA00900092E0700512132F800A900092E0B4CC
:10200A0001031207399000BFE06005E4F012226173
:10201A009000C0E07002A3E0600AE49000C0F0A360
:05202A00F01220BF22AE
:101E1B003D413DA3A1A3A100BCECB2E2B5BD696BF2
:101E2B00756E007761726E696E67212100B1ACD55A
:101E3B00A8B5B9BCC6CAB1337E327E00D3E0C7F2B7
:101E4B00A3BA2D2D2D2D00BFA8BAC5A3BA2D2D2DAC
:101E5B002D00CFFBB7D1A3BA2D2D2D2D00D7B4CC90
:081E6B00ACA3BA2D2D2D2D00B2
:10211000EF1FAA0670011E4A6019E4FCFDC3ED948E
:102120002CEC940150EA0000000000000DBD0001FD
:032130000C80EA36
:012133002289
:0D22AB00E4F5907FC8FE1221107590FF220F
:0B22CF0053B1EF43B210C2B4D297220B
:0522E000C2B4D29722F8
:01000A0022D3
:0122E50022D6
:1021B800C2AF1222001222DA1222CF12228F12226A
:0A21C800E012000A1222ABD2AF228F
:10165200E58720E40843871075C76080035387EF4E
:101662001221347BFF7A1E791BE4900043F07D0146
:10167200121F127BFF7A1E7923E4900043F07D0251
:10168200121F127BFF7A1E792EE4900043F07D0335
:10169200121F127BFF7A1E7938E4900043F07D041A
:1016A200121F127FD07E071221101221347FD07EAA
:1016B200071221107BFF7A1E7947E4900043F07DE8
:1016C20004121F127BFF7A1E7952E4900043F07DD0
:1016D20002121F127BFF7A1E795DE4900043F07DB7
:1016E20003121F127BFF7A1E7968E4900043F07D9B
:0F16F20001121F121221B81222E5121FFA80F8FE
:10000E00E4FDFCC3ED9FEC9E500A0000000DBD0008
:04001E00010C80EF62
:0100220022BB
:1021D200E4FFFEEF25E0FFC2A630A4034401FFD2D4
:0621E200A60EEEB408EDAC
:0121E80022D4
:10217900E4FEEF30E704D2A58002C2A50000C2A6A2
:0F2189000000D2A60000EF25E0FF0EEEB408E341
:012198002224
:10221600E4FEC2A7EF25E0547E4480FF1221791226
:0422260021D2D2A748
:01222A002291
:1020610012207D7D1E7F2D12207DE4FD7F2C12200C
:0C2071007D7D8D7F2A12207D7D3E7F2B1F
:10207D00C2A7EF25E0547EFF122179AF0512217919
:02208D00D2A7D8
:01208F00222E
:0521E900F07D087F08F5
:0221EE00AC073C
:1021F000E4FE122216AE07AF04EDF45EFD02207D70
:0E2199001221EEE4FD7F0112207D7D807F0A81
:0221A700AC0783
:0F21A900E4FE122216AE07AF04ED4EFD02207DBC
:061BB5007B017A00792F8C
:0E1BBB00900042EBF0A3EAF0A3E9F0A3EDF0F6
:101BC9007D047F05122199E4FC900045E0FFECC3F8
:101BD9009F501C900042E0FBA3E0FAA3E0F98C823D
:101BE900758300120135FD7F0912207D0C80DA7D95
:101BF900037F0112207D7CFF7F051222161CEC60F9
:101C090004EF30E2F37F22122216900046E0FBA394
:101C1900E0FAA3E0F9EF1201627F21122216900087
:101C290046E0FBA3E0FAA3E0F9900001EF0201749A
:100A700090004AF0A37401F0A37400F0A3742FF067
:100A8000A37401F0A37400F0A3742DF07A00792F01
:040A90007B017F0C5B
:100A9400900047EBF0A3EAF0A3E9F0900046EFF0F2
:100AA40090005174FEF0E4A3F0A3F0EF24F460107E
:100AB40024FE70169000527412F0A37410F0800A91
:100AC4009000527477F0A37430F0900052E04480A8
:100AD400FD7F0212207D7D807F04122199E4900025
:100AE40055F0A3F090004AE0FF900055E0FCA3E02D
:100AF400FDC39FEC94005028900047E0FBA3E0FA6C
:100B0400A3E0F98D828C83120135FD7F0912207DCB
:100B1400900056E004F070CC900055E004F080C4DE
:100B2400900046E0FD7F0112207DE0B40C077D803B
:100B34007F0D1221A79000557407F0A374D0F07FA5
:100B440004122216900054EFF0900056E024FFF0B7
:100B5400900055E034FFF0E07002A3E060119000D3
:100B640054E0FF20E009900053E0FEEF5E60D07D8A
:100B7400807F0D1221EE900055E07002A3E0700317
:100B8400020C6D7F06122216EF541B6003020C67E1
:100B9400900051F0A3E0FF900054E05F30E0069035
:100BA400005174FFF0900046E0640C6003020C6D89
:100BB4007F0A122216900054EFF07F0C122216EFD7
:100BC4005407FD6026E024FFFFE434FFFEEF7803C2
:100BD400C333CE33CED8F97C002DFFEC3EF9900020
:100BE4004EE0FBA3E0FAA3E0C98016900054E07540
:100BF400F008A4FF90004EE0FBA3E0FAA3E0F9E5BF
:100C0400F08FF01201FA900054E0700204F09000AA
:100C140054E0D3941240037412F0E4900055F0A30E
:100C2400F0900054E0FFC3900056E09F900055E020
:100C3400940050357F0912221690004BE0FBA3E08C
:100C4400FAA3E0F9900055E0FCA3E0F5828C83EF71
:100C5400120174900056E004F070C6900055E00450
:100C6400F080BE90005174FEF07D807F0C1221A7AD
:0C0C7400E4FD7F0112207D900051E0FFA4
:010C80002251
:0D1B2D0090002AEFF0A3EBF0A3EAF0A3E98B
:101B3A001221E97D077F0D12207D7D037F1412217A
:101B4A00A790002AE0900030F090004A7401F0A3B8
:101B5A00F0A37400F0A37430F0A37401F0A374002E
:101B6A00F0A3742EF07A007930120A90EF7039904F
:101B7A00002EE07004A3E06410702D900030E0FEA7
:101B8A0090002BE0FBA3E0FAA3E0F9EE12016290C9
:101B9A000031E0FE90002BE0FBA3E0FAA3E0F9900D
:0A1BAA000001EE12017480027FFEBC
:011BB400220E
:0B14E50090002AEBF0A3EAF0A3E9F06E
:1014F000E490002E1221E9E4FD7F0D12207D7D8015
:101500007F0E1221EE9000317493F0A37420F090BE
:10151000004A7402F07B01A314F0A37400F0A374DA
:1015200031F0A3EBF0A37400F0A3742FF07A0079EC
:10153000317F0C120A9490002DEFF07058FC74313A
:101540002CF582E43400F583E0FE90002AE0FBA352
:10155000E0FAA3E0F9AF048F82758300EE12017404
:1015600090002EE0FE74312FF582E43400F583E024
:10157000FDEE6D90002EF00CECB404C274312CF52D
:1015800082E43400F583E0FF90002EE06F60069067
:10159000002D74FEF07D807F0E1221A790002DE0BB
:0115A000FF4B
:0115A1002227
:0B15A20090002AEBF0A3EAF0A3E9F0B0
:1015AD0090002F7493F0A37470F0E4900035F0FC6C
:1015BD0090002AE0FBA3E0FAA3E0F9AF048F827557
:1015CD008300120135FE74312FF582E43400F5836A
:1015DD00EEF0900035E0FE8F82758300120135FD2F
:1015ED00EE6D900035F00CECB404C590004674011E
:1015FD00F0A37400F0A37436F07B017A00792F7D8F
:10160D0007121BBB1221EA90004A7409F0A3740162
:10161D00F0A37400F0A3742FF0A37401F0A3740071
:10162D00F0A3742DF07B017A00792F7F0C120A94B0
:10163D00EF700F90002DE07004A3E064187003FFAD
:04164D0080027FFE9A
:011651002276
:101DB200900034EFF0A3EDF078367C007D017E00D8
:101DC2007F061200F6783C7C007D0190002FE0FB3C
:101DD200A3E0FAA3E0F97E007F061200F690004A23
:101DE200740CF0A37401F0A37400F0A37434F0A394
:101DF2007401F0A37400F0A37432F07B017A0079CD
:101E0200347F0E120A94AD07ED70097F0812221674
:081E1200EF20E3027DFEAF05A5
:011E1A0022A5
:0B1A100090002AEBF0A3EAF0A3E9F03D
:101A1B009000307430F0A3EFF09000467401F0A307
:101A2B007400F0A37432F07B017A0079307D0212DE
:101A3B001BBB90004A7404F0A37401F0A37400F074
:101A4B00A37430F0A37401F0A37400F0A3742EF010
:101A5B007B017A0079307F0C120A9490002DEFF005
:101A6B007028A3E07004A3E06490701E90002AE03D
:101A7B00FBA3E0FAA3E0F8AC02AD037B017A00799B
:101A8B00307E007F101200F6800690002D74FEF061
:051A9B0090002DE0FFAA
:011AA0002223
:0B197A0090002AEBF0A3EAF0A3E9F0D4
:1019850090002F74A0F0A3EFF09000467401F0A32F
:101995007400F0A37431F07D02121BB57404120AB1
:1019A50070EF701690002DE07004A3E06404700AD7
:1019B50090002FE0540F640A60027FFEEF704B78B1
:1019C5002F7C007D0190002AE0FBA3E0FAA3E0F95B
:1019D5007E007F101200F69000467401F0A374009B
:1019E500F0A3743FF07D10121BB57412120A70EF4C
:1019F500701690002DE07004A3E06404700A900056
:0A1A05002FE0540F640A60027FFE18
:011A0F0022B4
:101E730090002D7450F0E4A3F07B0190004604F031
:101E8300A37400F0A3742FF07A00792D7D02121B46
:101E9300BB90004A7404F0A37401F0A37400F0A390
:101EA300742DF0A37401F0A37400F0A3742BF07BE2
:101EB300017A00792D7F0C120A9490002AEFF07FAB
:011EC300001E
:011EC40022FB
:10202F00D2A37F0A7E0012000EC2A312000ED2A30B
:10203F0012000E7D0F7F0112207D7F0A7E0012009D
:10204F000E7D3D7F111220617D407F1512207D7F17
:02205F0000225D
:10209000EF644170241221EA7D3D7F1112207D7D85
:1020A000867F1712207D7D7F7F261220617FE87E4C
:0F20B0000312000E12223E80037FFF227F0022C8
:10223E007F14122216EF540370077D037F141221B0
:01224E00A7E8
:01224F00226C
:070003007D037F140221EED2
:0E228F0012202F12000312223E7F41022090E7
:0F174F004200C400004200C800004200C2000077
:10220000758921758C69758AFAD2A9D28C758DFB76
:06221000758BFBD28E224B
:03000B00021C399B
:101C3900C0E0C0F0C083C082C0D075D000C000C071
:101C490001C002C003C004C005C006C007758C6985
:101C5900758AFA9000C9E004F070069000C8E004A3
:101C6900F09000C3E004F070069000C2E004F09028
:101C790000CAE0600214F09000C4E475F00112019A
:101C8900ACFEC3E5F09402EE9400400A90005EE0D9
:101C9900B40103122281D007D006D005D004D003A5
:101CA900D002D001D000D0D0D082D083D0F0D0E003
:011CB90032F8
:10175E006032005F0000000000000000000000008A
:10176E00000000000000000000000000000000006B
:10177E00000000000000000000000000000000005B
:10178E0000000000000041005C004100910041009B
:06179E005E0041005D0049
:0E229D00C2ACC2998F993099FDC299D2AC2281
:030023000218E3DD
:1018E300C0E0C083C082C0D075D000C004C006C0B1
:0118F30007ED
:1018F400309874C2989000C4E4F0A3F0AF999000BB
:101904005EE0FE7014EFB4FE107401F090005CE42D
:10191400F090009174FFF0804EEE640170499000E5
:101924005CE0FE04F0745F2EF582E43400F583EF8E
:10193400F090005CE0FCB40212900060E0FE9000C5
:101944005FE02E2403900091F08010900091E0FF5E
:10195400ECC39F400690005D7401F090005CE0C30E
:07196400942D4003742DF0E7
:0F196B00D007D006D004D0D0D082D083D0E032C5
:0622DA00759850D2AC2201
:0417A4004100CA0036
:101EC500D2B6D2A1C2B60020B70C9000CAE0700607
:101ED500740FF07F012220A20C9000CAE0700674F6
:101EE5000FF07F0222D2B6D2A1C2A10020B70C907A
:101EF50000CAE07006740FF07F032220A20C900048
:0D1F0500CAE07006740FF07F04227F0022F6
:10222B00EF1FAC0670011E4C6008000000000000A0
:03223B0080EE2210
:102250007580FFD2B2C2B3D2B5E58020E7FBC2B52C
:01226000225B
:10227100122250C2B2A20092B38F80D2B5C2B5224F
:101FC100EF24FE600F14601114601324037018EDE8
:101FD1002480800DED24908008ED24888003ED2479
:101FE10098FBE433FA80047A007B80AF03C20012CD
:091FF10022717F017E0002222B07
:101F120090003FEBF0A3EAF0A3E9F0AF0590004395
:101F2200E0FD121FC190003FE0FBA3E0FAA3E0F93D
:101F320012011CFFD394004011D2001222719000B2
:0B1F420040E475F00112019680DB22E4
:10213400C2007F30122271C2007F08122271C200D5
:102144007F10122271C2007F0C122271C2007F0123
:03215400022271F3
:101AAD00021652E493A3F8E493A34003F68001F2E7
:101ABD0008DFF48029E493A3F85407240CC8C3333A
:101ACD00C4540F4420C8834004F456800146F6DF09
:101ADD00E4800B0102040810204080901701E47E81
:101AED00019360BCA3FF543F30E509541FFEE493FE
:101AFD00A360010ECF54C025E060A840B8E493A3C5
:101B0D00FAE493A3F8E493A3C8C582C8CAC583CAEF
:101B1D00F0A3C8C582C8CAC583CADFE9DEE780BEA7
:0117A8000040
:10002600E709F608DFFA8046E709F208DFFA803EBC
:1000360088828C83E709F0A3DFFA8032E309F608A9
:10004600DFFA8078E309F208DFFA807088828C8311
:10005600E309F0A3DFFA806489828A83E0A3F608C5
:10006600DFFA805889828A83E0A3F208DFFA804C9F
:1000760080D280FA80C680D4806980F28033801076
:1000860080A680EA809A80A880DA80E280CA8033DF
:1000960089828A83ECFAE493A3C8C582C8CCC58357
:1000A600CCF0A3C8C582C8CCC583CCDFE9DEE78027
:1000B6000D89828A83E493A3F608DFF9ECFAA9F0A6
:1000C600EDFB2289828A83ECFAE0A3C8C582C8CCFC
:1000D600C583CCF0A3C8C582C8CCC583CCDFEADE15
:1000E600E880DB89828A83E493A3F208DFF980CC77
:1000F60088F0EF60010E4E60C388F0ED2402B40470
:100106000050B9F582EB2402B4040050AF23234516
:06011600822390007673C5
:10011C00BB010689828A83E0225002E722BBFE02E1
:09012C00E32289828A83E4932214
:10013500BB010CE58229F582E5833AF583E022507F
:1001450006E92582F8E622BBFE06E92582F8E222C9
:0D015500E58229F582E5833AF583E49322E3
:10016200BB010689828A83F0225002F722BBFE017C
:02017200F32276
:10017400F8BB010DE58229F582E5833AF583E8F0C1
:10018400225006E92582C8F622BBFE05E92582C86D
:02019400F22255
:10019600C5F0F8A3E028F0C5F0F8E58215827002F4
:0601A6001583E038F02291
:1001AC00A3F8E0C5F025F0F0E58215827002158306
:0601BC00E0C838F0E82263
:1001C200BB0110E58229F582E5833AF583E0F5F07B
:1001D200A3E0225009E92582F886F008E622BBFE58
:1001E2000AE92582F8E2F5F008E222E5832AF5839E
:0801F200E993F5F0A3E9932263
:1001FA00BB010A89828A83F0E5F0A3F0225006F750
:0F020A0009A7F01922BBFE06F3E5F009F319224C
:1002190075F008758200EF2FFFEE33FECD33CDCC9C
:1002290033CCC58233C5829BED9AEC99E58298401F
:100239000CF582EE9BFEED9AFDEC99FC0FD5F0D6FC
:10024900E4CEFBE4CDFAE4CCF9A88222B800C1B926
:100259000059BA002DEC8BF084CFCECDFCE5F0CB64
:10026900F97818EF2FFFEE33FEED33FDEC33FCEB9D
:1002790033FB10D703994004EB99FB0FD8E5E4F958
:10028900FA227818EF2FFFEE33FEED33FDEC33FC45
:10029900C933C910D7059BE99A4007EC9BFCE99A39
:1002A900F90FD8E0E4C9FAE4CCFB2275F010EF2F7E
:1002B900FFEE33FEED33FDCC33CCC833C810D7077E
:1002C9009BEC9AE899400AED9BFDEC9AFCE899F8B9
:0E02D9000FD5F0DAE4CDFBE4CCFAE4C8F9224C
:1002E700EB9FF5F0EA9E42F0E99D42F0E89C45F06D
:0102F70022E4
:0C02F800ECF0A3EDF0A3EEF0A3EFF02279
:10030400A8828583F0D083D08212031B12031B12B0
:10031400031B12031BE473E493A3C583C5F0C583D5
:10032400C8C582C8F0A3C583C5F0C583C8C582C843
:0103340022A6
:10033500D083D082F8E4937012740193700DA3A357
:1003450093F8740193F5828883E473740293B5F08E
:0D035500067403936860E9A3A3A3A380D8F6
:1003D400E5082437F582E43400F583E0050822902B
:1003E4000034300703900037E475F00112038E02E5
:1003F400011C2000E97F2ED2008018EF540F2490B6
:10040400D43440D4FF30040BEF24BFB41A0050039B
:100414002461FFE50960021509050CE50C7002056D
:100424000B30070E900034E475F00112038EEF02D6
:1004340001620220E97403D2078003E4C207F508CD
:100444009000341203A5E4F509F50BF50CE50960F9
:10045400077F2012041780F5750AFFC201C200C28B
:1004640002C203C205C206C2081203E3FF700D30C4
:1004740007057F00120428AF0CAE0B22B4255FC21F
:10048400D5C2041203E3FF24D0B40A00501A75F055
:100494000A780930D50508B6FF0106C6A426F62059
:1004A400D5047002D20380D924CFB41A00EF5004CB
:1004B400C2E5D204020629D20180C6D20080C0D28D
:1004C4000280BCD2D580BAD20580B47F2012041732
:1004D4002002077401B5090040F11203D4FF12048D
:1004E40017020451D208D20680951203D4FB1203DA
:1004F400D4FA1203D4F94A4B700679FA7A067BFFD0
:1005040020022EE509602A7E008E82758300120186
:100514003560060EEE650A70F0C2D5EBC0E0EAC0A5
:10052400E0E9C0E0EE120670D0E0F9D0E0FAD0E0E5
:10053400FB12011CFF60AAEBC0E0EAC0E0E9C0E0E6
:10054400120417D0E02401F9D0E03400FAD0E0FB23
:10055400E50A0460DCD50AD980877BFF7A06796CCA
:10056400D202809C791080027908C206C2088008F1
:10057400D2D5790A8004790AC2D5E50A047002F555
:100584000AE4FAFDFEFF1203D4FC7B0820011312D7
:1005940003D4FD7B1030000A1203D4FE1203D4FFEF
:1005A4007B20EC3382D592D55013C3E43000069FF0
:1005B400FFE49EFEE42001039DFDE49CFCE4CBF8F3
:1005C400C201EC700CCFCECDCCE824F8F870F380E7
:1005D40017C3EF33FFEE33FEED33FDEC33FCEB33A7
:1005E400FB994002FB0FD8E9EB300105F8D0E0C4D9
:1005F40048B201C0E00AEC4D4E4F78207B0070C237
:10060400EAB50A0040BCC0E0120672D0F0D0E02087
:100614000104C4C0E0C4B201C0F0120400D0F0D59B
:10062400F0EB0204511203AE04EE5305685804BF04
:100634004C04BB42056C4F05744405744904D4430F
:08064400057A55055E46055ECE
:10064C0045055E47071A5004C32D04C72E04EA2B38
:10065C0004CB2304E82007032A048348000004E2A7
:10066C003F3F3F00790AA2D5200314300509B91089
:10067C00020404B9080104A2D5200602500104208A
:10068C0002689202B509005034C0E07F2030031993
:10069C007F30A20272067205500F1206C9C202C246
:1006AC0006C205C2087F30800F300503E9C0E01296
:1006BC000417300503D0E0F9D0E0B509CC300517AC
:1006CC007F30B9100C1204177F583004077F7880E4
:1006DC0003B908031204173002057F2D0204177F9B
:1006EC00202008F87F2B2006F322920280CF286E60
:1006FC00756C6C2900D2011203D43001F8C2017858
:10070C000930D50108F60204832D504349581203D1
:10071C00D42403B405004001E49007159312040897
:0D072C00743A120408D2037509040205682E
:10036200EF4E6012EF60010EEDBB010B89828A83B2
:10037200F0A3DFFCDEFA2289F05007F709DFFCA9BF
:0C038200F022BBFEFCF309DFFCA9F02216
:10038E00F8E0FBA3A3E0F925F0F0E58215827002F8
:07039E001583E0FA38F0229C
:0903A500EBF0A3EAF0A3E9F02259
:1003AE00D083D082F8E4937012740193700DA3A3DE
:1003BE0093F8740193F5828883E4737402936860F2
:0603CE00EFA3A3A380DFF2
:1020E900EFB40A07740D1220F4740A309811A899F4
:1020F900B8130CC2983098FDA899C298B811F63057
:0721090099FDC299F599222E
:00000001FF
